:1000000019C05BC01FC01EC01DC01CC01BC01AC0D1
:1000100019C018C017C016C015C014C013C012C034
:1000200011C010C00FC00EC00DC00CC00BC00AC064
:1000300009C008C011241FBECFEFD4E0DEBFCDBF82
:1000400002D063C0DDCF8FEF87B990E99AB98BB941
:1000500081E0809369008DBB789447EF3BEF8FEF91
:100060002FE79FEE48B95FEF6FE378E351506040B0
:100070007040E1F700C0000038B95FEF6FE378E34C
:10008000515060407040E1F700C0000088B92BB9C2
:100090005FEF6FE378E3515060407040E1F700C0DC
:1000A00000009BB95FEF6FE378E351506040704010
:1000B000E1F700C000008BB9D5CF1F920F920FB6A9
:1000C0000F9211242F938F939F9387EF88B92FEF6F
:1000D0008FE392E0215080409040E1F700C00000A3
:1000E0008BEF88B92FEF8FE392E021508040904052
:1000F000E1F700C000008FEF88B99F918F912F9199
:0E0100000F900FBE0F901F901895F894FFCF30
:00000001FF
