:1000000019C059C01FC01EC01DC01CC01BC01AC0D3
:1000100019C018C017C016C015C014C013C012C034
:1000200011C010C00FC00EC00DC00CC00BC00AC064
:1000300009C008C011241FBECFEFD4E0DEBFCDBF82
:1000400002D069C0DDCF8FEF87B990E99AB98BB93B
:1000500081E0809369008DBB789477EF4CEC51E0A0
:10006000EBEF6FEFFFE7AFEE78B920E137E2CA01BF
:100070000197F1F721503040D1F7E8B920E137E29C
:10008000CA010197F1F721503040D1F768B9FBB9A7
:1000900020E137E2CA010197F1F721503040D1F752
:1000A000ABB920E137E2CA010197F1F721503040A6
:1000B000D1F76BB9D9CF1F920F920FB60F921124BF
:1000C0002F933F934F935F938F939F9387EF88B9BD
:1000D00020E931E04CEC51E0CA010197F1F72150E1
:1000E0003040D1F78BEF88B920E931E04CEC51E09A
:1000F000CA010197F1F721503040D1F78FEF88B94D
:100100009F918F915F914F913F912F910F900FBED3
:0A0110000F901F901895F894FFCF90
:00000001FF
