:1000000019C020C01FC01EC01DC01CC01BC01AC00C
:1000100019C018C017C016C015C014C013C012C034
:1000200011C010C00FC00EC00DC00CC00BC00AC064
:1000300009C008C011241FBECFEFD4E0DEBFCDBF82
:1000400002D024C0DDCF81EF8093800088E08093D0
:1000500081008FEF87B984B98FE790E09093890092
:100060008093880090938B0080938A001092850083
:1000700010928400809181008160809381008FEFD5
:1000800093EB0197F1F700C00000F9CFF894FFCF90
:00000001FF
